{
  "contractName": "JeremyBuddingToken",
  "abi": [
    {
      "inputs": [],
      "payable": false,
      "stateMutability": "nonpayable",
      "type": "constructor"
    },
    {
      "constant": true,
      "inputs": [],
      "name": "totalSupply",
      "outputs": [
        {
          "internalType": "uint256",
          "name": "",
          "type": "uint256"
        }
      ],
      "payable": false,
      "stateMutability": "view",
      "type": "function"
    }
  ],
  "bytecode": "0x6080604052348015600f57600080fd5b50620f42406000819055506084806100286000396000f3fe6080604052348015600f57600080fd5b506004361060285760003560e01c806318160ddd14602d575b600080fd5b60336049565b6040518082815260200191505060405180910390f35b6000548156fea265627a7a7231582056cb6e0f2d4ba01a40220913347f7624eb010d81a34d7732dddbbb70b775e85564736f6c63430005100032",
  "source": "pragma solidity ^0.5.16;\r\n\r\ncontract JeremyBuddingToken {\r\n\t//Constructor\r\n\t//Set the total number of tokens\r\n\t//Read the total number of tokens\r\n\tuint256 public totalSupply;\r\n\r\n\tconstructor() public {\r\n\t\ttotalSupply = 1000000;\r\n\t}\r\n}",
  "sourcePath": "C:/Users/jeffr/OneDrive/Documenten/C#/MyOwnCryptoToken/contracts/JeremyBuddingToken.sol",
  "compiler": {
    "name": "solc",
    "version": "0.5.16+commit.9c3226ce.Emscripten.clang"
  },
  "schemaVersion": "3.3.4",
  "updatedAt": "2021-03-05T23:56:16.958Z",
  "networkType": "ethereum",
  "devdoc": {
    "methods": {}
  },
  "userdoc": {
    "methods": {}
  }
}